:10000000000C002085040000B1040000B1040000D1
:1000100000000000000000000000000000000000E0
:10002000000000000000000000000000B10400001B
:100030000000000000000000B1040000B104000056
:10004000B1040000B1040000B1040000B1040000DC
:10005000B1040000B1040000B1040000B1040000CC
:10006000B1040000B1040000B1040000B1040000BC
:10007000B1040000B1040000B1040000B1040000AC
:10008000B1040000B1040000B1040000B10400009C
:10009000B1040000B1040000B1040000B10400008C
:1000A000B1040000B1040000B1040000B10400007C
:1000B000B1040000B1040000B1040000B10400006C
:10040000FFFFFFFFFFFFFFFFFFFFFFFFFEFFFFFFFD
:10041000402292029A1A92467047C046154B002B12
:1004200000D1114B9D46FFF7F3FF00218B460F468D
:100430001148124A121A00F07FF80C4B002B00D022
:1004400098470B4B002B00D0984700200021040058
:100450000D000B4800F054F800F076F82000290059
:1004600000F078F900F054F80000080000000000E7
:1004700000000000000C002004FCFF1FB8FCFF1F60
:100480009105000072B600F059F962B60549064AB6
:10049000064B9B1A03DD043BC858D050FBDCFFF72A
:1004A000BDFF00008407000000FCFF1F04FCFF1FCD
:1004B00000480047B104000010B5064C2378002B1B
:1004C00007D1054B002B02D0044800E000BF0123F8
:1004D000237010BD04FCFF1F000000005C0700003B
:1004E000044B10B5002B03D00349044800E000BFC3
:1004F00010BDC0460000000008FCFF1F5C070000A4
:10050000002310B501001A00180000F057F810BDC4
:10051000074B10B50400002B02D0002100F0AEF80C
:10052000044B1B68002B00D09847200000F004F912
:100530007D06000020FCFF1F03008218934200D1BB
:10054000704719700133F9E770B500260C4C0D4D5A
:10055000641BA410A64209D1002600F0FFF80A4C43
:100560000A4D641BA410A64205D170BDB300EB5820
:1005700098470136EEE7B300EB5898470136F2E7AB
:100580007C0700007C070000800700007C0700005B
:1005900070B5074C074D641BA410002C02D100F06D
:1005A000E3F870BD013CA300EB589847F5E7C0465F
:1005B000840700008007000070477047F0B52A4D9F
:1005C00085B006002868039301910292FFF7F4FFBB
:1005D000264B1C68002C08D1254C1C60254B002B99
:1005E00003D022001B688832136063681F2B06DD6E
:1005F0002868FFF7E2FF0120404205B0F0BD002E61
:1006000025D027008837386800280ED11A4B002BD8
:10061000EED08420400000E000BF0028E8D00300B6
:100620000022FC335A609A6038606168029A8B003D
:10063000C31804C301228A40FC3041681143416061
:100640000399D967022E02D18368134383606368DC
:1006500028685A1C62600233019A9B001A51FFF706
:10066000ACFF0020C9E7C04600FCFF1FB4FCFF1F21
:1006700028FCFF1F0000000000000000F0B52C4B1C
:1006800085B0039018680191FFF796FF294B1E680B
:10069000002E05D1264B1868FFF78FFF05B0F0BD7F
:1006A0003300756888336C1E1F68AD007519002C07
:1006B000F0DB019B002B0FD03B008033002F02D1D9
:1006C000013C043DF3E7A2009A5801998A4203D005
:1006D000043D013CF2D2DDE772686B68013AA24248
:1006E00017D17460002BEBD072680292002F06D0F5
:1006F00001223800A240FC30416811420CD19847D9
:100700000C4B726802991B688A42BFD19E42D7D0B7
:10071000BCE700226A60E5E78068A10079581042D2
:1007200002D103989847EBE708009847E8E7C046EE
:1007300000FCFF1FB4FCFF1FFEE7C04680B500AF02
:10074000034A88235B010021D150C046BD4680BDCD
:100750000070044080B500AFC046FDE7F8B5C04664
:10076000F8BC08BC9E467047F8B5C046F8BC08BC4B
:040770009E467047EA
:080774009CFCFF7F0100000066
:04077C00E104000094
:04078000B9040000B8
:0407840024FCFF1F33
:040000030000048570
:00000001FF
